:020000040800F2
:100000007805002001010008DF0F0008CB0D000873
:10001000DD0F0008510100080F1200080000000069
:1000200000000000000000000000000003100008B5
:10003000530100080000000001100008051000082E
:100040001B0100081B0100081B0100081B01000820
:100050001B0100081B0100081B0100081B01000810
:100060001B0100081B0100081B0100081B01000800
:100070001B0100081B0100081B0100081B010008F0
:100080001B0100081B0100081B0100081B010008E0
:100090001B0100081B0100081B0100081B010008D0
:1000A0001B0100081B0100081B0100081B010008C0
:1000B000B9100008D5100008ED1000081B01000859
:1000C0001B0100081B0100081B0100081B010008A0
:1000D0001B0100081B0100081B0100081B01000890
:1000E0001B0100081B0100081B010008DFF80CD0F1
:1000F00000F01CF800480047D512000878050020E1
:100100000648804706480047FEE7FEE7FEE7FEE7B1
:10011000FEE7FEE7FEE7FEE7FEE7FEE771100008F8
:10012000ED0000084FF0FF3070470000064C074D0F
:1001300006E0E06840F0010394E8070098471034B7
:10014000AC42F6D3FFF7D6FFBC150008DC1500085B
:10015000FEE770472DE9F84FDFF890A100220AF181
:10016000040B144601274FF00F090BF1040E00BFDA
:100170000B6807FA04F52B40AB4274D1DFF870C16D
:100180004E68A6EB0C0866452BD00DDC032E34D050
:1001900005DC36B3012E19D0022E2FD11BE0112E13
:1001A00016D0122E2AD119E0B8F5881F19D006DC16
:1001B000B8F5803F15D0B8F5801F1FD111E0B8F514
:1001C000001F0ED0B8F5041F18D10AE0CA6815E068
:1001D000CA68121D12E0CA6808320FE0CA680C3201
:1001E0000CE08A682AB1012A4FF0080203D0456169
:1001F00004E0042202E0056100E00022FF2B01D8A8
:10020000064601E000F104064FEA840501D9A5F194
:100210002005D6F800C009FA05F82CEA080C02FA05
:1002200005F54CEA050CC6F800C04D68ED0057D541
:10023000304DAE6946F00106AE61AD6924F00306AB
:1002400005F0010500952C4D06EB050CDCF8085077
:10025000A6074FEA167809FA08F6B543274EB042CA
:1002600002D1002610E03BE0254EB04201D101262C
:100270000AE0244EB04201D1022605E0224EB042EF
:1002800001D1032600E0042606FA08F62E43CCF836
:1002900008604D68DAF80060ED03554601D51E434D
:1002A00000E09E432E604D68DBF80060AD035D46C4
:1002B00001D51E4300E09E432E604D68DEF80060CD
:1002C000ED02754601D51E4300E09E432E604D6849
:1002D000AD020E4D2E6801D51E4300E09E432E60F8
:1002E000641C102CFFF444AFBDE8F88F00040140FB
:1002F0000000111000100240000001400008014001
:10030000000C014000100140001401400C040140A9
:100310008068084000D001207047C2684A40C2602F
:1003200070470AB1016170470904FBE70148806822
:10033000704700006800002002488168027811447C
:100340008160704768000020074810B5016841F0DF
:1003500010010160032000F09DF8002000F006F875
:1003600000F024F8002010BD0020024070B50D4DB3
:1003700004464FF47A712878B1FBF0F00A49096815
:10038000B1FBF0F000F00DFB48B9102C07D20022B1
:100390002146501E00F05EF800206C6070BD012008
:1003A00070BD00006800002074000020214808B5DE
:1003B000816941F001018161816901F001010091D0
:1003C000C16941F08051C161C06900F08050009066
:1003D000032000F05FF8002211466FF00B0000F0E0
:1003E00039F8002211466FF00A0000F033F80022BD
:1003F00011466FF0090000F02DF800221146501F41
:1004000000F028F800221146101F00F023F8002207
:100410001146901E00F01EF800221146501E00F0FA
:1004200019F80548416821F0E06141F00071416030
:1004300008BD0000001002400000014000F01F0253
:10044000012191404009800000F1E020C0F8001136
:1004500070470000F0B40E4B1B680C46C3F3022338
:10046000C3F10705042D00D90425191D072901D260
:10047000002300E0DB1E012606FA05F1491E21409B
:1004800099409E40761E16403143F0BC00F0A8BD56
:100490000CED00E0064900F0070208684FF6FF0384
:1004A000184040EA0220034A1043086070470000E9
:1004B0000CED00E00000FA052DE9F047DFF83C8183
:1004C00005460E46D8F8000000F00700B0420CD2F6
:1004D000D8F8001021F007013143C8F80010D8F80F
:1004E000000000F00700B04263D12878444C800738
:1004F00005D56068A96820F0F0000843606028789E
:10050000C00745D06868012816D02168022816D097
:10051000890700294DDA616821F003010143616018
:10052000FFF704FF6968074641F2883001290FD0C0
:100530000229814619D027E021688903E9E789016A
:10054000E7E700BFFFF7F2FEC11B494501D918E0FC
:1005500081466068C0F381000128F3D118E000BF34
:10056000FFF7E4FEC11B49450BD86068C0F381006A
:100570000228F5D10CE000BFFFF7D8FEC11B4945AA
:1005800002D90320BDE8F087606810F00C0FF3D1AA
:10059000D8F80010404601F00701B1420BD90168BC
:1005A00021F0070131430160006800F00700B0420C
:1005B00001D00120E6E72878400705D56068E968A2
:1005C00020F4E060084360602878000706D5606882
:1005D000296920F4605040EAC100606000F01CF816
:1005E0006168084AC1F30311515CC84006490860BC
:1005F0000020FFF7BBFE0020C4E7000000200240FF
:1006000000100240AC15000874000020014800688A
:10061000704700007400002012A185B00FC98DE85A
:100620000F0014A0144A006804905168134801F0A8
:100630000C03042B10D0082B0ED1C1F38343C90344
:100640001DF803000AD5516804AAC1F34041515C6A
:100650000A4A5043B0FBF1F005B0704708494843DF
:10066000FAE7000002030405060708090A0B0C0D4F
:100670000E0F1010010200000010024000127A005C
:1006800000093D002DE9F84F04460078B94DC00738
:1006900048D06868C0F38100012807D06868C0F3BB
:1006A0008100022809D16868C00306D52868800344
:1006B00038D5606800286FD034E06068B0F5803FBE
:1006C0000BD010B1B0F5A02F11D0286820F48030E5
:1006D0002860286820F4802002E0286840F48030F8
:1006E0002860606888B1FFF721FE064609E02868A7
:1006F00040F480202860F0E7FFF718FE801B642894
:1007000075D828688003F7D50CE0FFF70FFE064682
:1007100005E000BFFFF70AFE801B6428F0D82868B8
:100720008003F7D42078944E80074FF001094FF0F2
:1007300000083BD5686810F00C0F07D06868C0F35C
:100740008100022809D16868C00306D428688007A0
:1007500014D5206901281FD110E02069B0B1C6F876
:100760000090FFF7E3FD074605E000BFFFF7DEFD61
:10077000C01B0228C4D828688007F7D5286861699B
:1007800020F0F80040EAC10028600FE0C6F80080C1
:10079000FFF7CCFD074606E0E9E000BFFFF7C6FD26
:1007A000C01B022823D828688007F7D420780007C8
:1007B0002CD57248A169D9B1C0F80090FFF7B6FDF9
:1007C000074604E0FFF7B2FDC01B02280FD8686A95
:1007D0008007F7D56A484FF4FA510068B0FBF1F092
:1007E000009000BF0098411E0091FAD20EE080E018
:1007F000C0F80080FFF79AFD074604E0FFF796FD7A
:10080000C01B022875D8686A8007F7D42078400793
:1008100060D5E8690027C00008D4E86940F080503E
:10082000E861E869012700F08050009055480168B0
:10083000C90513D40168834641F480710160FFF754
:1008400075FD824606E000BFFFF770FDA0EB0A00D1
:1008500064284ED8DBF80000C005F5D5E068012813
:100860000AD008B1052813D0286A20F001002862B8
:10087000286A20F0040002E0286A40F001002862A3
:10088000E06841F2883B98B1FFF750FD82460BE0EB
:10089000286A40F004002862EEE700BFFFF746FD3B
:1008A000A0EB0A0159455AD8286A8007F6D50CE012
:1008B000FFF73CFD824605E0FFF738FDA0EB0A019B
:1008C00059454CD8286A8007F6D41FB1E86920F052
:1008D0008050E861E06988B36968C1F38101022949
:1008E00045D00228C6F8608004D0FFF71FFD0446FB
:1008F00038E034E0FFF71AFD074604E0FFF716FD85
:10090000C01B02282BD828688001F7D4206AB0F5D4
:10091000803F05D16868A16820F400300843686012
:10092000D4E908010843696821F474110843686038
:10093000C6F86090FFF7FAFC044606E015E000BF39
:10094000FFF7F4FC001B022809D828688001F7D5BE
:100950000BE000BFFFF7EAFC001B022802D90320CE
:10096000BDE8F88F28688001F4D40020F8E7012062
:10097000F6E70000001002400000424280044242BC
:1009800074000020007000404FF0E0210428086946
:1009900003D020F004000861704740F00400FAE73B
:1009A000704710B5401EB0F1807F01D3012010BD0B
:1009B0004FF0E02460610F21601700F011FB002070
:1009C000A06107202061002010BD10B5FFF7E8FFEF
:1009D00010BD7047704730B590F83C20012A20D0F8
:1009E000012280F83C20022380F83D3003685C68D7
:1009F00024F070045C6003685C680D682C435C60E4
:100A000003689C6824F080049C6003689C684968C3
:100A10000C439C6080F83D20002180F83C10084683
:100A200030BD022030BD10B5040003D094F83D0065
:100A300010B107E0012010BD002084F83C002046E2
:100A400000F00CF8022084F83D00211D206800F021
:100A500073FB012084F83D00002010BD08B51C4A3E
:100A600001681C48914207D1816941F400618161AC
:100A7000806900F4006014E0B1F1804F0AD0164A9A
:100A8000914210D1C16941F00201C161C06900F019
:100A9000020006E0C16941F00101C161C06900F0D6
:100AA0000100009008BD0D4A9142FBD1C16941F09F
:100AB0000401C161C069002200F0040000901146E9
:100AC0001E20FFF7C7FCBDE808401E20FFF7B6BC9C
:100AD000002C0140001002400004004000080040CB
:100AE000022180F83D1001680A6842F001020A60A4
:100AF000012180F83D10002070470168CA6842F06B
:100B00000102CA600068016841F001010160002033
:100B10007047022180F83D1001680A6A41F2111302
:100B20001A4207D10A6A9B101A4203D10A6822F0BE
:100B300001020A60012180F83D1000207047016821
:100B4000CA6822F00102CA600068016A41F211120B
:100B5000114207D1016A9210114203D1016821F0BC
:100B6000010101600020704770B5044690F83C0018
:100B7000012817D0012584F83C50022084F83D005C
:100B80002068826822F0770222F47F42826008683F
:100B9000502837D00DDC202859D005DC88B3102828
:100BA00041D151E0022070BD302853D040283AD1C5
:100BB0003FE060282ED070280BD0B0F5805F03D0C6
:100BC000B0F5005F2FD110E02068816821F00701A7
:100BD00015E0CB68D1E90121206800F0E3FA216833
:100BE000886840F0770088601DE0CB68D1E901217A
:100BF000206800F0D7FA2068816841F48041816064
:100C000011E01EE0CA684968206800F0DDFA502152
:100C1000206806E0CA684968206800F0E6FA6021AA
:100C2000206800F0C9FA84F83D50002084F83C00A8
:100C300070BDCA684968206800F0C6FA4021206883
:100C4000EFE700212068ECE710212068E9E7202188
:100C50002068E6E730212068E3E7704770B5044676
:100C6000006801694FF00005C943890715D4C168C0
:100C7000C943890711D4E91E01610120207720684A
:100C800080698007204602D0FFF7E7FF04E000F00C
:100C900098F8204600F096F8257720680169C94346
:100CA000490717D4C168C943490713D46FF0040139
:100CB0000161022020772068806910F4407F20467F
:100CC00002D0FFF7CAFF04E000F07BF8204600F0F6
:100CD00079F8257720680169C943090716D4C168E6
:100CE000C943090712D46FF008010161042020777D
:100CF0002068C0698007204602D0FFF7AEFF04E0FD
:100D000000F05FF8204600F05DF825772068016963
:100D1000C943C90617D4C168C943C90613D46FF0C3
:100D200010010161082020772068C06910F4407F1D
:100D3000204602D0FFF791FF04E000F042F8204681
:100D400000F040F8257720680169C943C90708D138
:100D5000C168C943C90704D1891E0161204600F05A
:100D600032F820680169C943090609D4C168C9433A
:100D7000090605D46FF0800101612046FFF729FEC6
:100D800020680169C943490609D4C168C9434906B5
:100D900005D46FF040010161204600F015F820688D
:100DA0000169C94389060BD4C168C943890607D4C0
:100DB0006FF0200101612046BDE87040FFF70ABED8
:100DC00070BD7047704770477047FEE72DE9F043EC
:100DD0002B4885B0816941F010018161816901F082
:100DE00010010491816941F004018161816901F080
:100DF00004010491816941F0080181618069DFF893
:100E0000848000F008004FF4C04404900022214682
:100E10004046FFF786FADFF870904FF6F077002231
:100E200039464846FFF77DFA0126CDE90046002401
:100E3000022569464046CDE90245FFF78BF9FF20C0
:100E40008DE8310069461148FFF784F9CDE9006467
:100E5000694648460294FFF77DF9CDE90076694678
:100E60004846CDE90245FFF775F908208DE83100C5
:100E700069464846FFF76EF905B0BDE8F08300000B
:100E80000010024000100140000C01400008014029
:100E900010B5124886B010490024C0E900148460DF
:100EA000C460046144618461FFF7BDFD00B1FEE7E9
:100EB0004FF48050009069460848FFF755FE00B196
:100EC000FEE7049404A905480594FFF784FD002873
:100ED00000D0FEE706B010BD002C014078000020D5
:100EE00010B5134886B04FF08041016041F2873160
:100EF0000024C0E901140121C0E903148461FFF753
:100F000092FD00B1FEE74FF480500090694608481A
:100F1000FFF72AFE00B1FEE7049404A904480594F3
:100F2000FFF759FD002800D0FEE706B010BD000015
:100F3000B800002010B5134886B01149016041F295
:100F400087310024C0E901140421C0E9031484613D
:100F5000FFF769FD00B1FEE74FF48050009069464D
:100F60000848FFF701FE00B1FEE7049404A9054814
:100F70000594FFF730FD002800D0FEE706B010BD55
:100F800000040040F800002010B5134886B0114955
:100F9000016040F604510024C0E901140121C0E9B8
:100FA00003148461FFF73FFD00B1FEE74FF480506A
:100FB000009069460848FFF7D7FD00B1FEE70494AA
:100FC00004A905480594FFF706FD002800D0FEE7B8
:100FD00006B010BD0008004038010020FEE7704751
:100FE0000907090E002806DA00F00F0000F1E020E2
:100FF00080F8141D704700F1E02080F8001470475D
:101000007047704710B5FFF797F9BDE81040FFF73C
:10101000DCBC10B590B0022000900120049010209C
:101020000024059007946846FFF72CFB00B1FEE70B
:101030000F20CDE90A044FF4E0600C94CDE90D4097
:1010400000210AA8FFF738FA00B1FEE7FFF7DEFA41
:101050004FF47A71B0FBF1F0FFF7A3FC0420FFF727
:1010600093FC00221146501EFFF7F4F910B010BD9A
:101070000D48016841F00101016041680B4A1140CF
:10108000416001680A4A11400160016821F4802131
:101090000160416821F4FE0141604FF41F0181604D
:1010A0000449C00308607047001002400000FFF8C8
:1010B000FFFFF6FE08ED00E010B510210348FFF732
:1010C0002CF9BDE810400248FFF7C8BD000C0140F4
:1010D000B800002003480168C1F101010160024825
:1010E000FFF7BCBD25010008F800002010B5012164
:1010F0000D48FFF70DF941F288330C4A0C4998422C
:1011000001D9482005E0B0F5FA6F01D24C2000E08B
:1011100049200B78D0540878401C0870BDE8104076
:101120000448FFF79BBD0000000C01406000002058
:101130000500002038010020F0B50268164B174C5E
:10114000174D4FF08047984205D0B84203D0A042D7
:1011500001D0A84203D122F070064A683243984277
:1011600005D0B84203D0A04201D0A84203D122F456
:101170004074CA68224322F080044A692243026014
:101180008A68C2620A688262984201D10969016371
:1011900001214161F0BD0000002C0140000400402D
:1011A0000008004010B5846842EA032224F47F441A
:1011B0000A432243826010BD826822F070020A4313
:1011C00042F007018160704710B5036A046A24F099
:1011D00001040462846924F0F00444EA021423F058
:1011E0000A020A438461026210BD10B5036A23F04B
:1011F000100303628369046A23F4704343EA0232F2
:1012000024F0A00343EA01118261016210BDFEE7F0
:1012100002E008C8121F08C1002AFAD170477047BF
:10122000002001E001C1121F002AFBD1704700001D
:101230002DE9F041244C0025A06C40B12348FFF774
:101240004FFC2248FFF759FCA564BDE8F081204F10
:10125000606A012678B1A0690028F6D108213846D5
:10126000FFF756F820B1E06C0078E0652670ECE7F7
:10127000606A0028E9D1A0690028E6D0606C30B12E
:10128000012220213846FFF74CF8A66265648021D0
:101290003846FFF73DF828B1002280213846FFF795
:1012A00040F8256160780028CFD0216DA26D0868D4
:1012B00062F31F2060650860012280213846FFF735
:1012C00030F826616570C0E700000020B8000020FB
:1012D000000C0140FFF738F8FFF79BFEFFF776FDA3
:1012E000FFF7FEFDFFF726FEFFF74EFEFFF7D0FDEE
:1012F000002211461C20FFF7ADF81C20FFF79EF8D6
:10130000002211461D20FFF7A5F81D20FFF796F8D3
:101310000B4C002210212046FFF703F80022802109
:101320002046FEF7FEFF074900208860486188617B
:1013300000F0F0F8FFF77CFF00F0F4F8F8E70000A9
:10134000000C0140000000202DE9F0413F4C002638
:101350003546206C30B13E48FFF7C2FB3C48FFF7F2
:10136000CCFB25642279032A05D0642121636379AB
:10137000052B02D054E06521F8E734486030077847
:101380004C2F04D0482F16D0492F30D03BE0427864
:101390004C2A38D182784C2A01D0482A33D1C278DD
:1013A000482A30D10279482A2DD1642945D0A06B32
:1013B0004000A06348E04778482F24D18778482F21
:1013C00001D04C2F1FD1C7784C2F1CD107794C2F3F
:1013D00019D1032A00D2521C2271657165291FD1CF
:1013E000D4E90E0101444000C4E90E0118E0477839
:1013F000492F08D18778492F05D1C778492F02D1C5
:101400000779492F1BD0616B052916D882195278AC
:101410008255761C042EF9D35B1E6371491C6163EF
:10142000A06BB0F5807F08D9E06BA06501206070EB
:10143000C4E90E05642020632571BDE8F0816529AB
:10144000FBD0521E022AF8D36571E9E700000020A4
:1014500038010020F8B52C4C0025A07820B1694651
:10146000492000F07DF8A5702078284E68B101224F
:1014700040213046FEF755FF0120E0622448FFF787
:101480002FFB2348FFF739FB2570A0680028E0698F
:1014900019D028BBE078032807D26946482000F01D
:1014A0005FF8E078401CE070F8BD94F85C00A1792A
:1014B000084010F0FF0F694601D0482000E04C20A2
:1014C00000F04EF8F8BD58B19DF80000482805D04E
:1014D0005FF048008DF800006946F1E74C20F9E71D
:1014E000E088B0F5807FEDD9012240213046FEF73B
:1014F00018FF0748E562FFF70CFB0548FFF71FFBE5
:1015000069464920DCE7000000000020000C014093
:10151000F800002010B5FFF79DFFBDE81040FFF771
:1015200013BF000070B50C4C0C4D1021A068E06199
:1015300060692062A06960622846FEF7E9FEA0614A
:1015400008212846FEF7E4FEE06080212846FEF7E9
:10155000DFFE206170BD000000000020000C014093
:101560002DE9F0410E464FF480410F4C4F100546D7
:10157000482804D0492D11D04C2D0CD105E0012272
:101580002046FEF7CEFE012201E0012207E03946A7
:101590002046FEF7C6FE3570BDE8F08100222046E9
:1015A000FEF7BFFE0022F2E700100140000000003D
:1015B000000000000102030406070809DC1500080A
:1015C00000000020780000001012000854160008E7
:1015D0007800002000050000201200080000010033
:1015E00000000100000000000000000000000000FA
:1015F00000000000000000000000000000000000EB
:101600000000000000000000000000006400000076
:1016100000000000010000000000000000000000C9
:101620000100000001000000080801400C0C01400E
:1016300000000000000000000000000000000000AA
:101640000000000001000000100000000000000089
:0416500000A24A04A6
:04000005080000ED02
:00000001FF
