:020000040800F2
:100000007005002001010008771600087F14000821
:10001000751600080D020008CB180008000000004B
:100020000000000000000000000000009B16000817
:100030000F02000800000000991600089D16000835
:100040001B0100081B0100081B0100081B01000820
:100050001B0100081B0100081B0100081B01000810
:100060001B0100081B0100081B0100081B01000800
:100070001B0100081B0100081B0100081B010008F0
:100080001B0100081B0100081B0100081B010008E0
:100090001B0100081B0100081B0100081B010008D0
:1000A0001B0100081B0100081B0100081B010008C0
:1000B000611700087D170008951700081B0100084C
:1000C0001B0100081B0100081B0100081B010008A0
:1000D0001B0100081B0100081B0100081B01000890
:1000E0001B0100081B0100081B010008DFF80CD0F1
:1000F00000F01CF800480047911900087005002026
:100100000648804706480047FEE7FEE7FEE7FEE7B1
:10011000FEE7FEE7FEE7FEE7FEE7FEE71917000849
:10012000ED0000084FF0FF3070470000064C074D0F
:1001300006E0E06840F0010394E8070098471034B7
:10014000AC42F6D3FFF7D6FF9C1C0008BC1C00088D
:1001500070B5044600688168C943C9071CD181682D
:1001600021F00101816000F067FB05460FE000BF50
:1001700000F062FB401B022809D9A06A40F0100081
:10018000A062E06A40F00100E062012070BD2068DA
:100190008068C043C007EBD0002070BDF8B50026D2
:1001A0000446009600688168C943C90728D0816861
:1001B00041F001018160134813490068B0FBF1F080
:1001C00000E0401E00900028FBD100F035FB054602
:1001D00011E000BF00F030FB401B02280BD9A06AE1
:1001E00040F01000A062E06A40F00100E06284F894
:1001F00024600120F8BD20688068C043C007E9D1B1
:100200000020F8BD7800002040420F00FEE7704754
:10021000F8B50024009490F824202546012A12D035
:10022000012280F824204A681F23072A0DD206687D
:10023000776B521E02EB820293409F430B68934000
:100240001F43776319E00220F8BD06680D2A0AD221
:10025000376BD21F02EB820293409F430B6893409F
:100260001F43376309E0F76A0D3A02EB82029340BD
:100270009F430B6893401F43F7620A680723066891
:100280000A2A0AD3F7680A3A02EB420293409F43D4
:100290008B6893401F43F76008E0376902EB420226
:1002A00093409F438B6893401F4337610A68102A2D
:1002B00001D0112A20D1124B02689A4217D19368BB
:1002C0001B0219D4936843F4000393600968102952
:1002D00012D10C490C4A0968B1FBF2F101EB810122
:1002E000490000E0491E00910029FBD104E0816A29
:1002F00041F020018162012480F824502046F8BD9D
:10030000002401407800002040420F000068C06CCB
:10031000704700002DE9F0414FF0000704003D4612
:100320007ED0A06A002628B9E66284F824602046C0
:1003300000F07EF82046FFF70BFFA16AC90600D443
:1003400020B1A06A40F01000A06269E0A16A21F427
:10035000885141F00201A1626268E169E3680A43E1
:1003600047EA43010A43A1684FF48077B94209D0B4
:10037000012907D05FF00001D4F814C0BCF1010FCF
:1003800002D00AE03946F7E7F3B1A36A43F020034D
:10039000A362E36A43F00103E3622368D3F804C075
:1003A0002CF4694C4CEA010CC3F804C021688B683A
:1003B000DFF870C003EA0C0313438B60A168B942F5
:1003C0000BD0012909D00CE0DFF85CC0A3690CEB6D
:1003D00043330B4343F40061DFE7218A0D05A5F5A4
:1003E00080152168CB6A23F470032B43CB6221680C
:1003F00089680E4B1940914208D1E662A16A21F04A
:10040000020141F00101A162BDE8F081A06A20F083
:10041000020040F01000A062E06A40F00100E062DB
:100420000120F1E7FDF7E1FF00E0FFFFFE0E1FFFF7
:1004300000B500680B4985B0884210D10A4881692F
:1004400041F4007181618069694600F40070049094
:100450000120009003200190044800F001F905B04C
:1004600000BD00000024014000100240000C0140CB
:100470002DE9F84300260D460446009600F0DCF90D
:10048000804620688168C90508D5A06A40F0200030
:10049000A06284F824600120BDE8F8834168C905A2
:1004A00003D4C06A10F4700F26D0022000F08AFA3C
:1004B00038490968B1FBF0F72068036936490B42F7
:1004C0004FEA61014FEAA1121BD1C3684FEA611CD8
:1004D00013EA0C0F15D103690B4221D1C0681042F9
:1004E0001ED114201FE0681C06D045B300F0A4F90B
:1004F000A0EB0800A84222D8206800688007F2D547
:100500002AE003690B4202D1C168114206D0026998
:1005100022490A4206D1C068084203D1542002E0B1
:10052000292000E0FC204743009813E0681C0ED00F
:100530002DB100F081F9A0EB0800A84207D9A06A0C
:1005400040F00400A06284F824600320A4E700982F
:10055000401C0090B842E9D321686FF01200086097
:10056000A06A40F40070A06220688068C0F3424036
:1005700007280CD1E06850B9A06A20F48070A0620E
:10058000A06AC00403D4A06A40F00100A062002069
:1005900082E7000078000020244992244992240038
:1005A00070B5044690F8240001280DD0012084F88D
:1005B00024002046FFF7F2FD02004FF0000005D0B6
:1005C00084F82400104670BD022070BDA16A40F27C
:1005D0000123994341F48071A1621F4D23681F4993
:1005E000AB4218D10E6816F4702F14D0A66A46F4E8
:1005F0008016A6620E68760505D5A66A26F4005612
:1006000046F48056A662A66AF6040AD5E66A26F083
:100610000606E66206E0A66A26F48016A6625E6812
:10062000E9E7E06284F824006FF0020018602068B7
:100630008368C3F34243072B05D1A84208D1096858
:1006400011F4702F04D0816841F480118160B9E702
:10065000816841F4A001F9E7002801400424014029
:100660002DE9F84FDFF890A100220AF1040B14469F
:1006700001274FF00F090BF1040E00BF0B6807FABA
:1006800004F52B40AB4274D1DFF870C14E68A6EB85
:100690000C0866452BD00DDC032E34D005DC36B3B8
:1006A000012E19D0022E2FD11BE0112E16D0122EA2
:1006B0002AD119E0B8F5881F19D006DCB8F5803FBB
:1006C00015D0B8F5801F1FD111E0B8F5001F0ED06E
:1006D000B8F5041F18D10AE0CA6815E0CA68121DEF
:1006E00012E0CA6808320FE0CA680C320CE08A686F
:1006F0002AB1012A4FF0080203D0456104E0042228
:1007000002E0056100E00022FF2B01D8064601E06F
:1007100000F104064FEA840501D9A5F12005D6F8B9
:1007200000C009FA05F82CEA080C02FA05F54CEAB3
:10073000050CC6F800C04D68ED0057D5304DAE69C8
:1007400046F00106AE61AD6924F0030605F001052F
:1007500000952C4D06EB050CDCF80850A6074FEA77
:10076000167809FA08F6B543274EB04202D10026A2
:1007700010E03BE0254EB04201D101260AE0244EB4
:10078000B04201D1022605E0224EB04201D103263B
:1007900000E0042606FA08F62E43CCF808604D68FF
:1007A000DAF80060ED03554601D51E4300E09E4394
:1007B0002E604D68DBF80060AD035D4601D51E4339
:1007C00000E09E432E604D68DEF80060ED02754645
:1007D00001D51E4300E09E432E604D68AD020E4DD4
:1007E0002E6801D51E4300E09E432E60641C102C31
:1007F000FFF444AFBDE8F88F000401400000111081
:10080000001002400000014000080140000C0140BF
:1008100000100140001401400C04014080680840B1
:1008200000D001207047C2684A40C26070470AB1D8
:10083000016170470904FBE70148806870470000C8
:100840006C00002002488168027811448160704782
:100850006C000020074810B5016841F010010160EC
:10086000032000F09DF8002000F006F800F024F8C6
:10087000002010BD0020024070B50D4D04464FF41D
:100880007A712878B1FBF0F00A490968B1FBF0F001
:1008900000F0F7FB48B9102C07D200222146501E69
:1008A00000F05EF800206C6070BD012070BD00009B
:1008B0006C00002078000020214808B5816941F0D3
:1008C00001018161816901F001010091C16941F07B
:1008D0008051C161C06900F080500090032000F099
:1008E0005FF8002211466FF00B0000F039F800228B
:1008F00011466FF00A0000F033F8002211466FF045
:10090000090000F02DF800221146501F00F028F8D1
:1009100000221146101F00F023F800221146901EFD
:1009200000F01EF800221146501E00F019F805488C
:10093000416821F0E06141F00071416008BD0000B4
:10094000001002400000014000F01F020121914010
:100950004009800000F1E020C0F80011704700005D
:10096000F0B40E4B1B680C46C3F30223C3F107051A
:10097000042D00D90425191D072901D2002300E008
:10098000DB1E012606FA05F1491E214099409E40D2
:10099000761E16403143F0BC00F06EBE0CED00E058
:1009A000064900F0070208684FF6FF03184040EAC6
:1009B0000220034A10430860704700000CED00E07D
:1009C0000000FA0510B529A401461DCC86B08DE8BB
:1009D0001D002AA02A4C006804900020012923D081
:1009E00002293AD010291DD161682268D20119D597
:1009F000C1F38342C9031DF8020009D5616804AA46
:100A0000C1F34041515C1F4AB2FBF1F1484301E0A0
:100A10001D4948436168490204D440005FF0030166
:100A2000B0FBF1F006B010BD226AC2F3012101292A
:100A300003D1920701D5C803F4E7022905D1626A00
:100A4000920702D549F64040ECE70329EAD1216834
:100A50008903E7D54FF22440E4E700F03DF96168EF
:100A6000C1F38131491C4900DAE7000002030405A3
:100A7000060708090A0B0C0D0E0F101001020000EA
:100A80000010024000127A0000093D002DE9F843F1
:100A900005460078354CC00754D0E0690026C000F8
:100AA00008D4E06940F08050E061E069012600F080
:100AB000805000902E480168C90512D40168804614
:100AC00041F480710160FFF7B7FE074605E000BF03
:100AD000FFF7B2FEC01B642823D8D8F80000C00579
:100AE000F6D5206A10F4407021D0A98801F4407135
:100AF00081421CD0206A1F49012220F440700A6004
:100B000000220A602062C00711D0FFF795FE074659
:100B100041F2883808E000BFFFF78EFEC11B414557
:100B200002D90320BDE8F883206A8007F4D5206A43
:100B3000696820F44070084320621EB1E06920F02B
:100B40008050E0612878800705D56068A96820F4A6
:100B50004040084360602878C00605D56068E968B1
:100B600020F48000084360600020DBE700100240B2
:100B700000700040400442422DE9F047DFF83C811C
:100B800005460E46D8F8000000F00700B0420CD22F
:100B9000D8F8001021F007013143C8F80010D8F848
:100BA000000000F00700B04263D12878444C800771
:100BB00005D56068A96820F0F000084360602878D7
:100BC000C00745D06868012816D02168022816D0D1
:100BD000890700294DDA616821F003010143616052
:100BE000FFF72AFE6968074641F2883001290FD0D5
:100BF0000229814619D027E021688903E9E78901A4
:100C0000E7E700BFFFF718FEC11B494501D918E00F
:100C100081466068C0F381000128F3D118E000BF6D
:100C2000FFF70AFEC11B49450BD86068C0F381007D
:100C30000228F5D10CE000BFFFF7FEFDC11B4945BE
:100C400002D90320BDE8F087606810F00C0FF3D1E3
:100C5000D8F80010404601F00701B1420BD90168F5
:100C600021F0070131430160006800F00700B04245
:100C700001D00120E6E72878400705D56068E968DB
:100C800020F4E060084360602878000706D56068BB
:100C9000296920F4605040EAC100606000F02CF83F
:100CA0006168084AC1F30311515CC84006490860F5
:100CB0000020FFF7E1FD0020C4E700000020024013
:100CC00000100240841C00087800002001480068E1
:100CD0007047000078000020044805490068496812
:100CE000044AC1F3C221515CC8407047780000201B
:100CF00000100240941C000812A185B00FC98DE8B5
:100D00000F0014A0144A006804905168134801F0C1
:100D10000C03042B10D0082B0ED1C1F38343C9035D
:100D20001DF803000AD5516804AAC1F34041515C83
:100D30000A4A5043B0FBF1F005B0704708494843F8
:100D4000FAE7000002030405060708090A0B0C0D68
:100D50000E0F1010010200000010024000127A0075
:100D600000093D002DE9F84F04460078B94DC00751
:100D700048D06868C0F38100012807D06868C0F3D4
:100D80008100022809D16868C00306D5286880035D
:100D900038D5606800286FD034E06068B0F5803FD7
:100DA0000BD010B1B0F5A02F11D0286820F48030FE
:100DB0002860286820F4802002E0286840F4803011
:100DC0002860606888B1FFF737FD064609E02868AB
:100DD00040F480202860F0E7FFF72EFD801B642898
:100DE00075D828688003F7D50CE0FFF725FD064687
:100DF00005E000BFFFF720FD801B6428F0D82868BD
:100E00008003F7D42078944E80074FF001094FF00B
:100E100000083BD5686810F00C0F07D06868C0F375
:100E20008100022809D16868C00306D428688007B9
:100E300014D5206901281FD110E02069B0B1C6F88F
:100E40000090FFF7F9FC074605E000BFFFF7F4FC50
:100E5000C01B0228C4D828688007F7D528686169B4
:100E600020F0F80040EAC10028600FE0C6F80080DA
:100E7000FFF7E2FC074606E0E9E000BFFFF7DCFC15
:100E8000C01B022823D828688007F7D420780007E1
:100E90002CD57248A169D9B1C0F80090FFF7CCFCFD
:100EA000074604E0FFF7C8FCC01B02280FD8686A99
:100EB0008007F7D56A484FF4FA510068B0FBF1F0AB
:100EC000009000BF0098411E0091FAD20EE080E031
:100ED000C0F80080FFF7B0FC074604E0FFF7ACFC69
:100EE000C01B022875D8686A8007F7D420784007AD
:100EF00060D5E8690027C00008D4E86940F0805058
:100F0000E861E869012700F08050009055480168C9
:100F1000C90513D40168834641F480710160FFF76D
:100F20008BFC824606E000BFFFF786FCA0EB0A00C0
:100F300064284ED8DBF80000C005F5D5E06801282C
:100F40000AD008B1052813D0286A20F001002862D1
:100F5000286A20F0040002E0286A40F001002862BC
:100F6000E06841F2883B98B1FFF766FC82460BE0EF
:100F7000286A40F004002862EEE700BFFFF75CFC3F
:100F8000A0EB0A0159455AD8286A8007F6D50CE02B
:100F9000FFF752FC824605E0FFF74EFCA0EB0A018A
:100FA00059454CD8286A8007F6D41FB1E86920F06B
:100FB0008050E861E06988B36968C1F38101022962
:100FC00045D00228C6F8608004D0FFF735FC0446FF
:100FD00038E034E0FFF730FC074604E0FFF72CFC74
:100FE000C01B02282BD828688001F7D4206AB0F5EE
:100FF000803F05D16868A16820F40030084368602C
:10100000D4E908010843696821F474110843686051
:10101000C6F86090FFF710FC044606E015E000BF3C
:10102000FFF70AFC001B022809D828688001F7D5C1
:101030000BE000BFFFF700FC001B022802D90320D1
:10104000BDE8F88F28688001F4D40020F8E701207B
:10105000F6E70000001002400000424280044242D5
:1010600078000020007000404FF0E021042808695B
:1010700003D020F004000861704740F00400FAE754
:10108000704710B5401EB0F1807F01D3012010BD24
:101090004FF0E02460610F21601700F0EDFA0020AE
:1010A000A06107202061002010BD10B5FFF7E8FF08
:1010B00010BD7047704730B590F83C20012A20D011
:1010C000012280F83C20022380F83D3003685C68F0
:1010D00024F070045C6003685C680D682C435C60FD
:1010E00003689C6824F080049C6003689C684968DD
:1010F0000C439C6080F83D20002180F83C1008469D
:1011000030BD022030BD10B5040003D094F83D007E
:1011100010B107E0012010BD002084F83C002046FB
:1011200000F00CF8022084F83D00211D206800F03A
:1011300061FB012084F83D00002010BD08B5016866
:101140001148B1F1804F0BD0104A914210D1C169C2
:1011500041F00201C161C06900F00200009008BDC9
:10116000C16941F00101C161C06900F00100F5E70A
:10117000074A9142F3D1C16941F00401C161C069DC
:1011800000F00400EAE70000001002400004004004
:1011900000080040022180F83D1001680A6842F012
:1011A00001020A60012180F83D10002070470168AB
:1011B000CA6842F00102CA600068016841F001019A
:1011C000016000207047022180F83D1001680A6A22
:1011D00041F211131A4207D10A6A9B101A4203D135
:1011E0000A6822F001020A60012180F83D10002007
:1011F00070470168CA6822F00102CA600068016A8B
:1012000041F21112114207D1016A9210114203D129
:10121000016821F0010101600020704770B50446AB
:1012200090F83C00012817D0012584F83C5002209A
:1012300084F83D002068826822F0770222F47F4221
:1012400082600868502837D00DDC202859D005DC92
:1012500088B3102841D151E0022070BD302853D00E
:1012600040283AD13FE060282ED070280BD0B0F54E
:10127000805F03D0B0F5005F2FD110E02068816857
:1012800021F0070115E0CB68D1E90121206800F0C9
:10129000E7FA2168886840F0770088601DE0CB6835
:1012A000D1E90121206800F0DBFA2068816841F46F
:1012B0008041816011E01EE0CA684968206800F042
:1012C000E1FA5021206806E0CA684968206800F009
:1012D000EAFA6021206800F0CDFA84F83D50002041
:1012E00084F83C0070BDCA684968206800F0CAFAFA
:1012F00040212068EFE700212068ECE710212068FA
:10130000E9E720212068E6E730212068E3E770471D
:1013100070B50446006801694FF00005C9438907AC
:1013200015D4C168C943890711D4E91E01610120A0
:101330002077206880698007204602D0FFF7E7FF0A
:1013400004E000F098F8204600F096F82577206831
:101350000169C943490717D4C168C943490713D470
:101360006FF004010161022020772068806910F489
:10137000407F204602D0FFF7CAFF04E000F07BF870
:10138000204600F079F8257720680169C9430907EC
:1013900016D4C168C943090712D46FF0080101616E
:1013A000042020772068C0698007204602D0FFF71C
:1013B000AEFF04E000F05FF8204600F05DF825770E
:1013C00020680169C943C90617D4C168C943C90661
:1013D00013D46FF010010161082020772068C069E4
:1013E00010F4407F204602D0FFF791FF04E000F0A8
:1013F00042F8204600F040F8257720680169C9438B
:10140000C90708D1C168C943C90704D1891E016150
:10141000204600F032F820680169C943090609D462
:10142000C168C943090605D46FF0800101612046F7
:10143000FFF73FFE20680169C943490609D4C16826
:10144000C943490605D46FF040010161204600F010
:1014500015F820680169C94389060BD4C168C943DE
:10146000890607D46FF0200101612046BDE8704075
:10147000FFF720BE70BD7047704770477047FEE7AA
:101480003EB50F480D49002501600124C0E9025412
:10149000456145604FF460210461C161FEF73AFF88
:1014A00000B1FEE708208DE8310069460448FEF7E8
:1014B000AFFE002800D0FEE73EBD00000024014042
:1014C0007C0000202DE9F043274885B0816941F078
:1014D00010018161816901F010010491816941F07D
:1014E00004018161816901F004010491816941F085
:1014F000080181618069DFF8748000F008004FF412
:10150000C0440490002221464046FFF790F9DFF8DE
:1015100060904FF6F077002239464846FFF787F98A
:101520000126CDE900460024022569464046CDE962
:101530000245FFF795F8FF208DE8310069460D4818
:10154000FFF78EF8CDE9007669464846CDE90245B9
:10155000FFF786F808208DE8310069464846FFF716
:101560007FF805B0BDE8F083001002400010014094
:10157000000C01400008014010B5134886B04FF040
:101580008041016041F287310024C0E9011401214A
:10159000C0E903148461FFF7B6FD00B1FEE74FF424
:1015A0008050009069460848FFF738FE00B1FEE71A
:1015B000049404A904480594FFF77DFD002800D099
:1015C000FEE706B010BD0000AC00002010B51348C7
:1015D00086B01149016041F287310024C0E901144D
:1015E0000421C0E903148461FFF78DFD00B1FEE71B
:1015F0004FF48050009069460848FFF70FFE00B195
:10160000FEE7049404A905480594FFF754FD00285B
:1016100000D0FEE706B010BD00040040EC00002042
:1016200010B5134886B01149016041F2873100249A
:10163000C0E901140121C0E903148461FFF763FDCF
:1016400000B1FEE74FF48050009069460848FFF76C
:10165000E5FD00B1FEE7049404A905480594FFF7F1
:101660002AFD002800D0FEE706B010BD00080040AB
:101670002C010020FEE770470907090E002806DA52
:1016800000F00F0000F1E02080F8141D704700F119
:10169000E02080F8001470477047704710B5FFF7DE
:1016A000D1F8BDE81040FFF700BD30B593B0012080
:1016B00002250490009510200024059007946846A8
:1016C000FFF750FB00B1FEE70F20CDE90A044FF40D
:1016D000E0600C94CDE90D4000210AA8FFF74CFA18
:1016E00000B1FEE70FA80F951194FFF7CFF900B1F5
:1016F000FEE7FFF7EBFA4FF47A71B0FBF1F0FFF77A
:10170000C0FC0420FFF7B0FC00221146501EFFF77A
:1017100027F913B030BD00000D48016841F0010108
:10172000016041680B4A1140416001680A4A11405A
:101730000160016821F480210160416821F4FE010B
:1017400041604FF41F0181600449C0030860704785
:10175000001002400000FFF8FFFFF6FE08ED00E079
:1017600010B510210348FFF75EF8BDE810400248AD
:10177000FFF7CEBD000C0140AC000020034801681B
:10178000C1F1010101600248FFF7C2BD2501000857
:10179000EC00002010B505211148FEF769FE002875
:1017A000F9D10F48FEF7B2FD0E4940F6AC530E4A90
:1017B00008600E49984201D9482006E040F2DC5307
:1017C000984201D24C2000E049200B78D054087890
:1017D000401C0870BDE810400548FFF799BD0000A7
:1017E0007C00002068000020600000200500002030
:1017F0002C010020F0B50268164B174C174D4FF026
:101800008047984205D0B84203D0A04201D0A842F8
:1018100003D122F070064A683243984205D0B8429C
:1018200003D0A04201D0A84203D122F44074CA6878
:10183000224322F080044A69224302608A68C2621D
:101840000A688262984201D10969016301214161FC
:10185000F0BD0000002C01400004004000080040E2
:1018600010B5846842EA032224F47F440A432243E9
:10187000826010BD826822F070020A4342F00701C4
:101880008160704710B5036A046A24F001040462A1
:10189000846924F0F00444EA021423F00A020A43A3
:1018A0008461026210BD10B5036A23F01003036265
:1018B0008369046A23F4704343EA023224F0A003EC
:1018C00043EA01118261016210BDFEE702E008C82F
:1018D000121F08C1002AFAD170477047002001E0AA
:1018E00001C1121F002AFBD1704700002DE9F04111
:1018F000244C0025A06C40B12348FFF74BFC224844
:10190000FFF755FCA564BDE8F081204F606A012611
:1019100078B1A0690028F6D108213846FEF77EFF8D
:1019200020B1E06C0078E0652670ECE7606A002882
:10193000E9D1A0690028E6D0606C30B101222021F5
:101940003846FEF774FFA662656480213846FEF7CC
:1019500065FF28B1002280213846FEF768FF256127
:1019600060780028CFD0216DA26D086862F31F2037
:1019700060650860012280213846FEF758FF266125
:101980006570C0E700000020AC000020000C0140A2
:10199000FEF760FFFFF789FEFFF794FDFFF7ECFD10
:1019A000FFF714FEFFF73CFEFFF76AFD0022114629
:1019B0001C20FEF7D5FF1C20FEF7C6FF00221146B3
:1019C0001D20FEF7CDFF1D20FEF7BEFF00221146B1
:1019D0001E20FEF7C5FF1E20FEF7B6FF0D48FEF7DE
:1019E000DFFD0D4C002210212046FEF720FF0022D3
:1019F00080212046FEF71BFF0849002088604861CF
:101A0000C1F8180000F0F2F8FFF770FF00F0F6F8E8
:101A1000F8E700007C000020000C014000000020DE
:101A20002DE9F0413F4C00263546206C30B13E4850
:101A3000FFF7B0FB3C48FFF7BAFB25642279032A85
:101A400005D0642121636379052B02D054E0652120
:101A5000F8E73448603007784C2F04D0482F16D070
:101A6000492F30D03BE042784C2A38D182784C2A3A
:101A700001D0482A33D1C278482A30D10279482A85
:101A80002DD1642945D0A06B4000A06348E0477881
:101A9000482F24D18778482F01D04C2F1FD1C778E9
:101AA0004C2F1CD107794C2F19D1032A00D2521C7C
:101AB0002271657165291FD1D4E90E0101444000EE
:101AC000C4E90E0118E04778492F08D18778492FDB
:101AD00005D1C778492F02D10779492F1BD0616BF7
:101AE000052916D8821952788255761C042EF9D30E
:101AF0005B1E6371491C6163A06BB0F5807F08D9E0
:101B0000E06BA06501206070C4E90E0564202063CD
:101B10002571BDE8F0816529FBD0521E022AF8D359
:101B20006571E9E7000000202C010020F8B52C4C7D
:101B30000025A07820B16946492000F07DF8A57005
:101B40002078284E68B1012240213046FEF76FFE12
:101B50000120E0622448FFF71DFB2348FFF727FB25
:101B60002570A0680028E06919D028BBE078032818
:101B700007D26946482000F05FF8E078401CE0702A
:101B8000F8BD94F85C00A179084010F0FF0F694699
:101B900001D0482000E04C2000F04EF8F8BD58B1CC
:101BA0009DF80000482805D05FF048008DF800003F
:101BB0006946F1E74C20F9E7E088B0F5807FEDD980
:101BC000012240213046FEF732FE0748E562FFF76A
:101BD000FAFA0548FFF70DFB69464920DCE70000EB
:101BE00000000020000C0140EC00002010B5FFF7C1
:101BF0009DFFBDE81040FFF713BF000070B50C4C0F
:101C00000C4D1021A068E06160692062A0696062EB
:101C10002846FEF703FEA06108212846FEF7FEFDD8
:101C2000E06080212846FEF7F9FD206170BD0000CC
:101C300000000020000C01402DE9F0410E464FF459
:101C400080410F4C4F100546482804D0492D11D033
:101C50004C2D0CD105E001222046FEF7E8FD0122C3
:101C600001E0012207E039462046FEF7E0FD35702D
:101C7000BDE8F08100222046FEF7D9FD0022F2E700
:101C800000100140000000000000000001020304F9
:101C9000060708090000000001020304BC1C00083C
:101CA000000000207C000000CC180008381D00084F
:101CB0007C000020F4040000DC1800080000010093
:101CC0000000010000000000000000000000000013
:101CD0000000000000000000000000000000000004
:101CE0000000000000000000000000006400000090
:101CF00000000000010000000000000001000000E2
:101D00000100000001000000080801400C0C014027
:101D100000000000000000000000000000000000C3
:101D200000000000000000000100000010000000A2
:081D30000000000000A24A04BB
:04000005080000ED02
:00000001FF
